:100000000C9424030C94520F0C946B030C946B030C
:100010000C946B030C946B030C946B030C946B03A8
:100020000C946B030C946B030C94A0260C94722715
:100030000C94FA1C0C946B030C946B030C946B03E0
:100040000C946B030C946B030C946B030C946B0378
:100050000C946B030C94471D0C946B030C946B0372
:100060000C946B030C946B030C946B030C946B0358
:100070000C946B030C946B030C946B030C946B0348
:100080000C946B030C946B030C946B030C946B0338
:100090000C946B030C946B030C946B030C946B0328
:1000A0000C946B030C946B030C946B03A30AA60AC9
:1000B000AB0AB20AB70ABC0AC10AC60ACB0AD00AFE
:1000C000D50ADA0ADD0ADD0ADD0ADD0ADD0ADD0A03
:1000D000DD0ADD0AA612A612D812D8122513431380
:1000E0009B149B1485131A142B142B148B149B1420
:1000F0009B1494143B153B154D154D1544154D158A
:100100004D154D153B153B1549154D154D1549150B
:10011000DF270628FE280628FE2852287528FE28F4
:10012000CC28DB282E001E001F002000210022000A
:100130002B0014001A0008001500170029610400A4
:100140001600070009000A00D75C1D001B0006000E
:10015000190005003100E000E200E30003512C002B
:100160002A00270026002500240023002D0013006C
:1001700012000C0018001C00340033000F000E00A9
:100180000D000B00D85C380037003600100011005D
:100190004F005200510050000451280035001E004D
:1001A0001F002000210022002B0014001A0009006B
:1001B00013000A00290004001500160017000700AC
:1001C000E1001D001B000600190005000551E000BC
:1001D000E200E30003512C002A002700260025003E
:1001E000240023004C0033001C0018000F000D00F9
:1001F000340012000C00080011000B002800380029
:100200003700360010000E004F0052005100500021
:1002100004512C0035001E001F0020002100220088
:100220002B0034003600370013001C0029000400A6
:100230001200080018000C00E100330014000D004B
:100240000E001B000551E000E200E30003512C000A
:100250002A00270026002500240023004C000F0060
:10026000150006000A0009003800160011001700EA
:100270000B00070028001D0019001A0010000500DF
:100280004F0052005100500004512C0035023A003A
:100290003B003C003D003E0035021E0252002002A1
:1002A000210222024C00500051004F003D003E0050
:1002B0002F004000410042004300440001000100C3
:1002C00001000100010001002A004300420041003A
:1002D00040003F004C00010030022F0224022302A4
:1002E0003102010030002F002D023F0030000100DC
:1002F0000100640232024500AE00A900AA00AB0072
:100300000100010035001E001F0020002100220016
:1003100035001E001F002000210022004C003A0082
:100320003B003C003D003E00010040004100420017
:100330004300440001000100010001000100010030
:100340002A00270026002500240023004C00270057
:100350002600250024002300310030002F002E004D
:100360002D003F0001000100010064003200450043
:10037000AE00A900AA00AB00010001003A003B005A
:100380003C003D003E003F000100005CC25CC35CDD
:10039000C65CC55C0100010001001D5C1E5C135CB5
:1003A0000100010001000100010001000100010045
:1003B000010001000100010045004400430042002B
:1003C000410040004C000100C95CCA5CC75CC85CCD
:1003D000010001001250115010500A5C0100010090
:1003E0000100010001000100010001000100010005
:1003F00001000100000101010101010101010202EE
:1004000002020202020202030303030303030304C2
:10041000040404040404050505050506060606068D
:10042000070707070708080808090909090A0A0A47
:100430000B0B0B0C0C0C0D0D0D0E0E0E0F0F0F10E9
:100440001011111112121313141415151616171773
:10045000181819191A1A1B1B1C1D1D1E1E1F2020DF
:10046000212222232424252626272829292A2B2C29
:100470002D2D2E2F30313232333435363738393A4C
:100480003B3C3D3E3F404142434445464748494A44
:100490004C4D4E4F50515354555658595A5B5D5E12
:1004A0005F616264656668696B6C6D6F70727375AD
:1004B00077787A7B7D7E8082838587888A8C8E8F11
:1004C00091939596989A9C9EA0A2A3A5A7A9ABAD3F
:1004D000AFB1B3B5B7BABCBEC0C2C4C6C9CBCDCF2D
:1004E000D1D4D6D8DBDDDFE2E4E7E9EBEEF0F3F5DB
:1004F000F8FAFDFF0403300000002A0354006800EE
:10050000650020004E0079007100750069007300DD
:10051000740020004B006500790062006F006100EC
:100520007200640000000E034B006500650062006D
:1005300069006F0000000403090409023B00020186
:1005400000A0FA09040000010301010009211101C2
:1005500000012240000705810308000A0904010088
:10056000010300000009211101000122810007059B
:10057000820320000A120110010000000810CB566F
:100580001100020102030105010902A1018502090E
:1005900001A1000509190129051500250195057519
:1005A00001810295017503810105010930093115A9
:1005B00081257F95027508810609381581257F956B
:1005C0000175088106050C0A38021581257F950101
:1005D00075088106C0C005010980A10185031901C4
:1005E0002AB700150126B700950175108100C005D6
:1005F0000C0901A101850419012AA002150126A0F8
:1006000002950175108100C005010906A1010507C9
:1006100019E029E71500250195087501810295016A
:10062000750881010507190029FF150026FF0095AF
:1006300006750881000508190129059505750191C0
:1006400002950175039101C011241FBECFEFDAE0BE
:10065000DEBFCDBF04B603FE27C08091BC029091DF
:10066000BD02A091BE02B091BF028730904BA7405F
:10067000B04BD1F41092BC021092BD021092BE0297
:100680001092BF0214BE84B7877F84BF0FB6F89460
:10069000A89580916000886180936000109260004E
:1006A0000FBEE0E0F8E3099511E0A0E0B1E0ECEE68
:1006B000F3E502C005900D92A23AB107D9F722E006
:1006C000A2EAB1E001C01D92AC3BB207E1F70E9483
:1006D000CF230C94F4290C9400000E94520B85E067
:1006E0000E94C00B0E94430A4FEF6FEF80E00E9410
:1006F000090A60E070E0CB010E94E21B0C94EE1B43
:1007000081E0089581E008950C94820308950C948B
:1007100086031F93CF93DF9300D000D01F92CDB7F5
:10072000DEB749835A836B833091C80189819A81EE
:10073000311114C0662359F0222349F00E94761A21
:10074000182F682F89819A810E941D1A03C00E9468
:10075000491A182F69817A81812F04C00E94761A64
:1007600069817A810F900F900F900F900F90DF9119
:10077000CF911F910C944904FC01262F4081518197
:100780006281738184810C948903CF93DF93EC01A0
:1007900060E00E94BC03BE01DF91CF910C948703FF
:1007A0000E94A81B811102C00E944A1C0E945D0C7D
:1007B0000C9465060C94610608950C94DC0381E0AA
:1007C00008950C94DF03CF93C82F0E94DD038C2F74
:1007D0000E94E103CF91089508950E9429150E9477
:1007E000EC032FEF84E39CE0215080409040E1F740
:1007F00000C000000C946D1D0F931F93CF93DF93E7
:10080000EC0161E00E94BC038C01BE010E948403E4
:100810008823A9F1BE01C8010E94C60B882379F183
:10082000BE01C8010E940C0D882349F1BE01C80118
:100830000E944D0D882319F1BE01C8010E94780E57
:100840008823E9F0BE01C8010E948C0A8823B9F010
:100850008A81882369F001158CE5180731F00E3D77
:100860001C4531F40E944A1C0AC00E94ED0307C0D7
:10087000CE01DF91CF911F910F910C94800380E006
:10088000DF91CF911F910F91089580E090E008953E
:1008900008952CE3829FC0011124FC0126E0729F81
:1008A000E00DF11D1124E60FF11DEE0FFF1FEC5DB1
:1008B000FE4F859194910895880F991FFC01EC508B
:1008C000FC4F859194910895CF93DF930E94490442
:1008D0000E947C05EC018115904508F041C0C115CE
:1008E00080E4D80708F0D1C0C83ED10510F5C03E5D
:1008F000D10508F0FDC0C83AD10578F4C53AD10554
:1009000008F0A2C0C130D10509F4F2C008F4EEC06D
:10091000C430D10508F0ECC0E9C0CF3BD10508F4E4
:100920009BC0C03CD10508F4E1C0CE01805C9109B8
:100930009EC0C11590E2D90758F4C11521E0D20735
:1009400008F0D6C0C03FD10508F4D0C0D065D0C0F3
:10095000C11580E3D80708F08EC0CE019F7087C014
:10096000C11595E5D90708F043C0C11524E5D207A4
:1009700008F0A2C0C11582E5D80708F5C11591E5B8
:10098000D90708F085C0CE0174E0969587957A95D1
:10099000E1F783709C2F937021E030E002C0220FBA
:1009A000331F9A95E2F73C68382BCF70C695C695F1
:1009B00080E2C89FE0011124C22BD32B99C09E0175
:1009C000237033278C2F86958695C115D34508F063
:1009D00064C0C1E0D0E002C0CC0FDD1F2A95E2F771
:1009E00020E2829FC0011124C82BD92BDC6880C073
:1009F000C11529E5D207A0F4C11588E5D80708F08C
:100A000060C0C11596E5D90708F070C08C2F0E9410
:100A100010068F71C82FD0E0DC2FCC27D06268C0C1
:100A2000C1152AE5D20708F451C0CE0190568115B0
:100A3000904208F05BC08D2F8F710E941006DD2759
:100A4000D0628F71D82B54C0C55AD0E0CF5ADE4F38
:100A5000C881D0E0D0644CC0C85AD0E0CC0FDD1FB4
:100A6000CD5DDE4F0990D881C02DD46441C00E9475
:100A70005C04EC013DC0CE019927D3FF03C0EC011B
:100A8000D86C36C0EC01D06C33C0DF70D06A30C097
:100A9000DC2FCC27C16FD06A2BC0C1E0D0E002C0F0
:100AA000CC0FDD1F2A95E2F720E2829FC0011124BE
:100AB000C82BD92BDA681CC0DC2FCC27C46FD06AB6
:100AC00017C0DC2FCC27C06FD06A12C08C2F8F705C
:100AD0000E94100694E0D695C7959A95E1F7CF70DD
:100AE000D0E0DC2FCC27D069C82B02C0C0E0D0E01A
:100AF000CE01DF91CF9108958238910569F1B0F46C
:100B00008133910509F46DC048F48932910509F4E7
:100B100063C08A32910509F469C00895853391054F
:100B200009F455C089339105B9F00895833E9105C4
:100B300069F138F4803E9105B1F0823E910509F1EA
:100B40000895863E9105A9F1873E9105B9F1843E4D
:100B5000910509F064C023C02091AD0220FD4FC073
:100B600021FD4DC008958091AD0280FD44C080916B
:100B7000AE0280FF44C08091AD0284FD42C083EE8E
:100B80004DC08091AD0282FF38C0F5CF8091AD029B
:100B900082FD33C08091AE0280FD31C0ECCF8091E8
:100BA000AE0281FF32C08091AD0284FD2AC087EE83
:100BB00035C08091AD0283FF26C0F5CF8091AD0294
:100BC00083FD21C08091AE0281FD1FC0ECCF8091DA
:100BD000AD0285FD1CC01DC08091AD0285FD19C010
:100BE00016C08091AD0286FD16C017C08091AD027F
:100BF00086FD13C010C089E311C082EE0FC080EEE5
:100C00000DC080E00BC086EE09C084EE07C089E20B
:100C100005C085E303C08AE201C081E390E0089546
:100C20009091AD0292FF0DC0282F2871283019F441
:100C3000877F846006C0282F2471243011F48B7FB5
:100C4000886093FF0DC0282F2871283119F4877E02
:100C5000846106C0282F2471243111F48B7E8861B1
:100C60002091AE0220FF0DC0382F3871383019F4B2
:100C7000877F816006C0382F3171313011F48E7F4B
:100C8000886021FF0DC0282F2871283119F4877E34
:100C9000816106C0282F2171213111F48E7E886177
:100CA00094FD877E0895E82FF0E0EB59FD4F808199
:100CB0000895089580EA8A95F1F7089508950C94AF
:100CC0005E060C945F060C945E060C946306089511
:100CD000CF93DF930E94D80780910001809100019B
:100CE000811102C095E001C090E09093700285E010
:100CF000891B80936F02AAE5B1E04FE551E061E006
:100D000070E08D91E82FE295EF70F0E021A18F70F7
:100D1000EB0102C0CC0FDD1F8A95E2F7CE019C2FBC
:100D20009095922391A392A1892B82A34A175B07E6
:100D300041F7A4E5B1E04AE551E061E070E08D9152
:100D4000E82FE295EF70F0E021A18F70EB0102C077
:100D5000CC0FDD1F8A95E2F7CE019C2F9095922350
:100D600091A392A1892B82A34A175B0741F7EBE578
:100D7000F2E0A5E6B2E085E692E011921D928E17B0
:100D80009F07D9F785E00E9482070E94D003DF9178
:100D9000CF910C94E2070E94B907882309F1809152
:100DA0006F0290E08B599D4F0E94F507811114C08E
:100DB0008091A2018F5F8093A201863078F0E0914C
:100DC0006F02F0E0EB59FD4F80E090E01192019648
:100DD00085309105D9F702C01092A2010C94DA0374
:100DE0008091700290E08B599D4F0E941A080C94DC
:100DF00067066F927F928F929F92AF92BF92CF922F
:100E0000DF92EF92FF920F931F93CF93DF938AE5C8
:100E1000882E81E0982E0BE512E090E6A92E92E054
:100E2000B92E712CCC24C394D12CF40181914F01A3
:100E3000C82FC295CF70D0E099A18F70760101C004
:100E4000EE0C8A95EAF7892F8E2989A38AA16E2C48
:100E5000609486218AA30E945A06E4E5F1E040E00E
:100E600050E020E03191A32FA295AF70B0E09096B2
:100E70008C9190E03F7002C0959587953A95E2F786
:100E800080FD07C08C2D042E01C0880F0A94EAF75C
:100E900001C080E0282B4F5F5F4F4630510511F7AE
:100EA00089A1682269A28AA1E82AEAA2F8018081C0
:100EB000281719F0208381E001C080E0782A0F5FB5
:100EC0001F4FA016B10609F0B0CF6091700270E01C
:100ED0006B597D4F272D45E08BE592E00E948307FB
:100EE0000E94CB06872DDF91CF911F910F91FF902C
:100EF000EF90DF90CF90BF90AF909F908F907F90BA
:100F00006F9008950895FF920F931F93CF93DF93EF
:100F10008C01F62ED72FC42F222349F081E0809335
:100F2000A5010E942C1D9093A4018093A3018091A0
:100F3000A5018823C1F08091A3019091A4010E9492
:100F4000381D069780F0EF2DFD2FD8014C2F50E073
:100F5000CD01801B910B841795071CF48D91819313
:100F6000F7CF1092A501DF91CF911F910F91FF90C4
:100F700008958091A601811112C08091D8008061EE
:100F80008093D8008AE18A95F1F700C08091D9005A
:100F900080FD02C082E001C081E08093A60181E073
:100FA0009091A601913009F080E008950C94B90762
:100FB0000E94D607809300010E94B90781110C940A
:100FC000E90708950E94B907811102C00C94EF0748
:100FD000089561E070E081E091E00C94040F61E01D
:100FE00070E081E091E00C940B0FCF93DF93D82F4A
:100FF000C92F0E94A30F892BC9F4ED2FFC2F80E08D
:1010000090E0DC01A755BE4F2C91219301968530CD
:101010009105B9F70E94E20A882319F00E94E60AB6
:1010200001C080E08093A80181E001C080E0DF91F1
:10103000CF91089520E030E0FC014191CF01F9010A
:10104000E755FE4F40832F5F3F4F25303105A1F715
:101050008091A8010C94FB0BEF92FF920F931F93CA
:10106000CF93DF93F62E472FE82FF0E0711106C0E3
:10107000EC50FC4F6491762F862F72C0272F30E002
:10108000EC50FC4FE4910E2F10E056E0659FC0013C
:101090001124CFEFD0E0BE010E9442295BEA560343
:1010A000C001579F900D11248F0D911D8F0D911D23
:1010B000982F990F890F7E01E21AF30AE09ED00162
:1010C000E19EB00DF09EB00D1124489FA0011124A7
:1010D000452F55277E01E41AF50AE09EA001E19E06
:1010E000500DF09E500D11247E01E81AF108E29E89
:1010F000C001E39E900DF29E900D1124892F992737
:10110000C81BD90BC09FC001C19F900DD09F900DEF
:1011100011246230710591F048F461157105E1F018
:1011200061307105A9F48B2F752F19C064307105DA
:1011300061F038F06630710579F00AC0892F7B2F95
:101140000EC08E2F7B2FE52F0AC08E2F792F02C065
:10115000852F7E2FEB2F03C08B2F7E2FE92F6E2F35
:10116000DF91CF911F910F91FF90EF900895CF9352
:10117000DF93762FE901682F842F0E942C08798352
:1011800068838A83DF91CF91089580917102982FAF
:101190009695913021F0817082608093710208955C
:1011A00088E090E00C94B429CF92DF92EF92FF9206
:1011B0006B017C010E94C508B701A60188E090E0A0
:1011C000FF90EF90DF90CF900C94D229E1E7F2E00E
:1011D00083E0808311828FEF828383831482608116
:1011E0007181828193810C94D4088091750283303F
:1011F00018F48F5F80937502609171027091720292
:1012000080917302909174020C94D40880917502BD
:10121000882319F08150809375026091710270915A
:10122000720280917302909174020C94D40870E061
:101230000C946D0C60910A018091710280FF0AC0CC
:101240008091090123E0829FC00111248A589D4F9B
:101250000C94170980910B0190910C01891780F76C
:10126000E82FF0E09F01220F331FE20FF31FEA582F
:10127000FD4F1182108212828F5FF0CFE1E7F2E022
:1012800080818E7F808360817181828193810E94C1
:10129000D4082FEF80E792E0215080409040E1F7A2
:1012A00000C000000C941A099091710290FF16C0C2
:1012B00090910B0120910C01921770F4E92FF0E04E
:1012C000DF01AA0FBB1FEA0FFB1FEA58FD4F818306
:1012D000608342839F5FF0CF0C941A090895EF92C8
:1012E000FF920F931F93CF93DF9300D01F92CDB740
:1012F000DEB79091710290FF2CC0E22E142F062FC2
:10130000F82EE92FE695F0E0EC59FE4F80818093AE
:10131000AF019E7F923059F49E012F5F3F4F8F2D7A
:101320000E94B7084B8169818A810E945409F0921A
:1013300072020093730210937402EE2051F06091D8
:1013400071027091720280917302909174020E94F6
:10135000D4080F900F900F90DF91CF911F910F91B4
:10136000FF90EF900895E1E7F2E09181282F43810B
:10137000628188E0890F0C946F0981E00C94B309B5
:10138000E1E7F2E09181282F4381628188EF890FA4
:101390000C946F0981E00C94C009E1E7F2E06281EE
:1013A00021E1620F08F46FEF282F438181810C94B3
:1013B0006F0981E00C94CD09E1E7F2E0628121E15F
:1013C000621B08F460E0282F438181810C946F092F
:1013D00081E00C94DC09E1E7F2E0438121E1420F76
:1013E00008F44FEF282F628181810C946F0981E00E
:1013F0000C94EB09E1E7F2E0438121E1421B08F4A0
:1014000040E0282F628181810C946F0981E00C9467
:10141000FA0921E00C946F0920E00C946F09809187
:10142000710280FF18C08170826080937102662310
:1014300051F06091710270917202809173029091EB
:1014400074020E94D40840917402609173028091EA
:1014500072020C940C0A0895682F81E00C940F0A14
:1014600081E00C942C0A682F9091710296958FEF71
:10147000890F09F481E00C940F0A81E00C94330A7F
:1014800061E00C940F0AE1E7F2E0808181608083E3
:1014900086950C94400A8091710280FD0C943E095F
:1014A0000C94430A60E00C940F0A8091AE01811104
:1014B0002CC00E94A81B811104C00E944A1C0E94DB
:1014C000E6080E94D00860937102709372028093C4
:1014D0007302909374026E7F61F40E94E6080E948A
:1014E000D00860937102709372028093730290939C
:1014F00074020E94C5088091710280FF03C0869526
:101500000E94520A81E08093AE010895882311F071
:10151000FA0101C0FB0109941F93CF93DF93FB01F4
:10152000128111114AC0EC010E94F71A8272FE0169
:10153000E25CFC45E431F10520F4EA5AFF4F0C94DB
:101540008C2911E03AC00E944B0A37C04DE35AE0A3
:1015500060E37AE004C040E35AE06DE37AE00E9481
:10156000860A2BC04AEC59E06DEB79E0F8CF4DEBE1
:1015700059E06AEC79E0F3CF48EE59E069ED79E0A3
:10158000EECF49ED59E068EE79E0E9CF46E05AE068
:1015900067EF79E0E4CF47EF59E066E07AE0DFCF2C
:1015A00046E059E065EF78E0DACF45EF58E066E0D5
:1015B00079E0D5CF81E00E94400A812FDF91CF9161
:1015C0001F9108958091A602817008958091A602CE
:1015D00086958695869508950E94A81B811102C064
:1015E0000E944A1C0E94D91B8093A602282F269590
:1015F0002695269530E02830310524F087708863E1
:101600008093A6028091A60280FF04C086958695ED
:10161000869501C080E00C94FB0B2091A602822FDE
:10162000869586958695482F50E04730510554F4AD
:101630008F5F982F990F990F990F822F8770892BA1
:101640008093A6028091A60281608093A6020E94E8
:10165000DD1B8091A6028695869586950C94FB0BE2
:101660008091A602982F969596959695A1F0915EF9
:10167000990F990F990F8770892B8093A602887F05
:1016800091E009F490E08091A60290FB80F98093AC
:10169000A6020E94DD1B8091A602869586958695FE
:1016A0000C94FB0B8091A60280FD13C08160809397
:1016B000A602813019F489E08093A6028091A602E7
:1016C0000E94DD1B8091A6028695869586950C94D6
:1016D000FB0B08958091A60280FF08C08E7F809347
:1016E000A6020E94DD1B80E00C94FB0B0895809104
:1016F000A60280FD0C946A0B0C94520B9091A602EA
:10170000892F8695869586958F5F8F719770883023
:1017100038F4880F880F880F892B8093A60202C0A7
:101720009093A6028091A602887F91E009F490E050
:101730008091A60290FB80F98093A6020E94DD1B97
:101740008091A6028695869586950C94FB0B883031
:1017500008F087E09091A6029770282F220F220FA1
:10176000220F922B9093A602987F21E009F420E0AB
:101770009091A60220FB90F99093A6020C94FB0B8B
:101780000E94A70B8091A6020C94DD1B9C01FB011B
:101790008281882349F12D3BFCE53F07C9F040F4E5
:1017A0002B3BECE53E0769F02C3B3C4561F008958E
:1017B0002F3B9CE5390791F070F0203C3C4589F0C7
:1017C000089587E001C080E00E94C00B80E008958A
:1017D0000E94300BFBCF0E940D0BF8CF0E94770BBD
:1017E000F5CF0E947E0BF2CF81E00895269A2E98C5
:1017F00008952E980895CF92DF92EF92FF92CF93A3
:10180000C82F883050F4811109C0809180008F7DED
:10181000809380000E94F90B06C0C7E08091800091
:101820008062809380002C2F30E0AFEFBFEF0E94EA
:10183000922927E030E040E050E00E946A29C90187
:101840002C3764E1360728F469E070E00E944229F1
:1018500029C0DA01C9018A50974DAF4FBF4F6627A3
:10186000782F892F9A2F25EF38E241E050E00E942F
:101870006A2969017A01CA01B9010E9432299B01D2
:10188000AC01C701B6010E943229BB27A92F982FAE
:10189000872F009721E0A207B10511F0BC0102C01B
:1018A0006FEF7FEF70938B0060938A00CF91FF9072
:1018B000EF90DF90CF90089508950E94F60B82E29A
:1018C0008093800089E1809381008FEF9FEF909358
:1018D0008700809386000C94EC0A539A2BB1277FE3
:1018E0003BB138604FB7F894FC01CB01880F991FCA
:1018F000680F791F6E0F7F1FE617F70789F0819138
:1019000098E03BB9000000C087FF2BB9880F0000AA
:1019100000C000C000C02BB900C09A9591F7ECCF71
:101920004FBF8FE594E00197F1F700C000000895E4
:101930000F931F93CF93DF93C62FD42F122FFC0149
:1019400082818823C9F06093B3010E942C1D90937B
:10195000B2018093B10180E28C0F883008F057C04B
:10196000C77081E001C0880FCA95EAF7DF91CF9177
:101970001F910F910C9462128091B301681330C0D3
:101980008091B1019091B2010E94381D883C91056F
:1019900038F500E20D0FCD17B9F080E28C0F8830DA
:1019A00040F4C77081E001C0880FCA95EAF70E9431
:1019B0006912083028F581E09D2F977001C0880FCB
:1019C0009A95EAF70E946212812F0E944F12083006
:1019D000F0F4D77081E001C0880FDA95EAF70AC009
:1019E00080E28C0F883098F4C77081E001C0880FC6
:1019F000CA95EAF7DF91CF911F910F910C9469126C
:101A0000812FDF91CF911F910F910C944F12DF9195
:101A1000CF911F910F9108959C01CB01233F4CE57D
:101A20003407F9F078F4283DFCE53F07B9F0293D8B
:101A30004CE5340711F1273D3C4531F526E241EEF6
:101A400061EE1EC0253FFCE53F0799F070F0263F90
:101A50003C45D1F427E245EE66EE12C027E245EEA2
:101A60000EC026E241EE60EE0BC027E245EE64EECA
:101A700007C026E241EE62EE03C028E241E065EED7
:101A80000E94980C80E00895FC018281882319F05F
:101A90001092B301089581E00895CF93DF93EC0194
:101AA000FB018281882309F41FC1C230FCE5DF07F6
:101AB00008F41BC1C6319CE5D90738F09E012A5FA6
:101AC0003C452930310508F010C10E94BB1B9093A2
:101AD000AE028093AD02C031ECE5DE0709F4C3C06D
:101AE00008F041C0C8308CE5D80709F49AC0F0F47A
:101AF000C430ECE5DE0709F487C068F4C2308CE539
:101B0000D80709F477C0C330DC4509F0E3C0809101
:101B1000AD02826076C0C630ECE5DE0709F46EC027
:101B200008F07BC08091AD0288606BC0CC308CE542
:101B3000D80709F485C068F4CA30ECE5DE0709F47B
:101B400074C008F079C00E9429158091AD028068A8
:101B500058C0CE308CE5D80709F476C008F07FC0B5
:101B60008091AD028BC0CB3FECE5DE0709F44FC09E
:101B700018F5C3318CE5D80709F47DC078F4C1317C
:101B8000ECE5DE0709F473C0C231DC4509F0A2C000
:101B90000E9429158091AD028F7733C0C5318CE545
:101BA000D80709F472C008F486C0CA3FDC4509F0C2
:101BB00091C08091AE023EC0CF3FFCE5DF0709F443
:101BC0005FC058F4CD3F9CE5D90709F444C008F440
:101BD0003FC08091AE0282602DC0C130FDE5DF07BD
:101BE00009F475C008F45DC0C230DD4509F072C06B
:101BF00080E06EC08091AD02816003C08091AD0233
:101C000080618093AD0266C08091AD0211C0809169
:101C1000AE0282608093AE025DC08091AD028062B0
:101C2000F0CF8091AD028064ECCF8091AD028860EE
:101C30008460E7CF8160EECF8091AD028E7FE1CFEF
:101C40008091AD028D7FDDCF8091AD02877FD9CFAE
:101C50008091AE0218C08091AE028D7FDBCF809163
:101C6000AD028F7ECECF8091AD028F7DCACF8091A5
:101C7000AD028F7BC6CF8091AD02877F8B7FC1CFB6
:101C80008091AE028D7F8E7FC5CF8091AD0282FBA9
:101C9000222720F991E0922790FB82F990FB83F9AB
:101CA000B0CF8091AE02982F909591708E7F892B46
:101CB00090FB81F9AFCF0E9429158091AD0287FB7F
:101CC000222720F991E0922790FB87F99ACF81E0B3
:101CD0000E944C1C8091AD029091AE020E94CC1BE0
:101CE0000E94291580E001C081E0DF91CF91089525
:101CF000CF93DF9386319C4541F5EB010E94F71AA3
:101D0000982F8A8120910E0130910F01882379F05C
:101D10009A7A81E009F480E08093B401911102C0C5
:101D200069E201C065E3C9010E94931C0AC0809169
:101D3000B401811102C069E201C065E3C9010E94DA
:101D4000951C0E94451B80E001C081E0DF91CF918E
:101D500008958EE1489B02C08150E1F7489BFECF79
:101D60000895589880E28A95F1F7589A0895FC01F1
:101D70002AE02A95F1F728E090E080E031E040E1A8
:101D80004A95F1F7880F489B02C08160932700C0F5
:101D9000000040E14A95F1F7215089F720E12A95AA
:101DA000F1F729B100C0000030E13A95F1F7217058
:101DB00092272081920F90830895EF92FF920F93C4
:101DC0001F93CF93DF931F92CDB7DEB719828C019B
:101DD0007C01E60EF11C0E151F0551F00E94A90EA4
:101DE000CE0101960E94B70EF80181938F01F3CFC7
:101DF00081E09981911180E00F90DF91CF911F9147
:101E00000F91FF90EF9008959093B6018093B501E4
:101E1000509A589A08959093B6018093B5015098BE
:101E2000589AE89AE9E6F0E080818C7F80830895F3
:101E3000615091E001C0990F6A95EAF720E031E026
:101E4000992361F0492F482319F0589A232701C09C
:101E5000589840E24A95F1F79695F2CF222311F077
:101E6000589A01C0589880E28A95F1F758980895D9
:101E7000FF920F931F93CF93DF93EC018C01060F1A
:101E8000111DC017D10741F0F9900E94B10E68E012
:101E90008F2D0E94180FF5CFDF91CF911F910F91D9
:101EA000FF9008951F920F920FB60F9211242F9357
:101EB0003F934F935F936F937F938F939F93AF93D2
:101EC000BF93CF93DF93EF93FF935898509AC091AD
:101ED000B501D091B6016D81662321F08E819F817D
:101EE0000E94380F0E94B10E80E18A95F1F7589850
:101EF0005098589A80E18A95F1F76A81662351F0EB
:101F00008B819C810E94DD0EE881F981811104C0E2
:101F100082E003C0E881F98188E080830E94A90EF5
:101F2000FF91EF91DF91CF91BF91AF919F918F91F1
:101F30007F916F915F914F913F912F910F900FBEC5
:101F40000F901F901895CF93DF93C091B501D0915A
:101F5000B601F894509A589885E08A95F1F70000F8
:101F60005098589A80E28A95F1F7489B0AC0509A97
:101F7000589AE881F98181E08083789481E090E04B
:101F80002CC06D81662381F08E819F810E94DD0EC1
:101F900081110AC0509A589AE881F98182E08083C1
:101FA000789482E090E019C00E94A90E80E28A95A0
:101FB000F1F75898509A80E18A95F1F76A81662383
:101FC00021F08B819C810E94380F0E94B10EE88124
:101FD000F9811082789480E090E0DF91CF910895AC
:101FE0009093BC018093BB010895E091BB01F091F7
:101FF000BC01309721F00190F081E02D099480E040
:102000000895E091BB01F091BC01309721F002806E
:10201000F381E02D09940895E091BB01F091BC019A
:10202000309739F022E0DC012C930480F581E02D1B
:10203000099408952091B9013091BA012817390700
:1020400071F09093BA018093B901E091BB01F091D6
:10205000BC01309721F00680F781E02D09940895A6
:102060002091B7013091B8012817390771F090938A
:10207000B8018093B701E091BB01F091BC013097AA
:1020800021F00084F185E02D0994089585B78068DA
:1020900085BF85B7806885BF089508950C944D105D
:1020A0000C944E100C944D100C944D100E94461040
:1020B0000E9452100C9450100C94B9070E94231DDA
:1020C0000E9468060E947E1D0E94EC0A0E94550A2A
:1020D0000C945410AF92BF92CF92DF92EF92FF9286
:1020E0000F931F93CF93DF93CDB7DEB72A970FB629
:1020F000F894DEBF0FBECDBF0E94F9060E945C10AF
:10210000811111C08FEF89838A831B820E942C1D4D
:102110008160782F9D838C8349815A816B818D8169
:102120000E94041140C08EEBA82E81E0B82E00E082
:1021300010E0C02E802F0E945306E82EF501D190AA
:102140005F01D82631F40F5F1F4F0A30110589F760
:10215000D9CF80913E0281FD0E94590680E0FF2484
:10216000F3949D2D9F21D1F08E83CF82EF2081E0CB
:1021700009F480E088870E942C1D8160782F9A875F
:1021800089874E815F8168858A850E940411F801E4
:10219000E254FE4F8081F826F08205C08F5FFF0C6D
:1021A0008630F9F6D0CF0E945C0C0E94101F0E946E
:1021B000F50F9091BD018917B1F00E94F50F809342
:1021C000BD012A960FB6F894DEBF0FBECDBFDF91DA
:1021D000CF911F910F91FF90EF90DF90CF90BF9024
:1021E000AF900C94E3032A960FB6F894DEBF0FBEAF
:1021F000CDBFDF91CF911F910F91FF90EF90DF90B6
:10220000CF90BF90AF900895CF93DF93CDB7DEB757
:102210002B970FB6F894DEBF0FBECDBF4F83588704
:1022200069877A878B87DE01119686E0FD0111921E
:102230008A95E9F785E0FE01379601900D928A951F
:10224000E1F749815A816B817C818D819E810E9459
:10225000E2172B960FB6F894DEBF0FBECDBFDF910D
:10226000CF910895FC01808191810E94B81A089550
:10227000CF93882309F4A9C0C82F8238C1F40E94E3
:10228000F50F81FDA2C069E380910E0190910F01CD
:102290000E94931C0E94451B2FEF81EE94E0215079
:1022A00080409040E1F700C0000069E319C0833826
:1022B00001F50E94F50F80FD88C063E580910E0155
:1022C00090910F010E94931C0E94451B2FEF81EEFD
:1022D00094E0215080409040E1F700C0000063E5A9
:1022E00080910E0190910F010E94951CCF910C944A
:1022F000451B8438C1F40E94F50F82FD66C067E477
:1023000080910E0190910F010E94931C0E94451B29
:102310002FEF81EE94E0215080409040E1F700C023
:10232000000067E4DDCF8CEF8C0F813AF8F48C2F3E
:102330000E94B821811149C06C2F80910E019091AB
:102340000F010E945D1C882349F06C2F80910E01C3
:1023500090910F010E94951C0E94451B6C2F80914B
:102360000E0190910F010E94931CC0CF80E28C0F50
:10237000883048F4C77081E001C0880FCA95EAF739
:102380000E94FA1AB3CFEBE5EC0FE33040F4F0E033
:10239000EC56FE4F808190E0CF910C941A10E8E546
:1023A000EC0FE73150F4F0E0EE0FFF1FEA59FE4F5B
:1023B00080819181CF910C943010C03F30F08C2FF0
:1023C0000E94181ECF910C94051FCF910895882369
:1023D00009F464C0823879F40E94F50F81FF5EC071
:1023E00069E380910E0190910F010E94931C0E945D
:1023F000451B69E310C08338B1F40E94F50F80FFDC
:102400004DC063E580910E0190910F010E94931CD5
:102410000E94451B63E580910E0190910F010E947F
:10242000951C0C94451B843879F40E94F50F82FFAB
:1024300035C067E480910E0190910F010E94931CBA
:102440000E94451B67E4E7CF9CEF980F913A10F488
:10245000682FE1CF90E2980F983050F4877091E0A8
:1024600001C0990F8A95EAF7892F0E94001BD9CFE6
:102470009BE5980F933020F480E090E00C941A10C4
:1024800098E5980F973120F480E090E00C9430109C
:10249000803F20F00E94801E0C94051F0895CF936A
:1024A000C82F0E943811C93349F42FEF87EE93E00B
:1024B000215080409040E1F700C000008C2FCF9168
:1024C0000C94E711882321F00E94FA1A0C94451B02
:1024D0000895882321F00E94001B0C94451B089549
:1024E000CF92DF92EF92FF920F931F93CF93DF93E0
:1024F0007C01062FC72FFC01158112951F70D28118
:10250000D1110E94171B0E94F01A882399F0DD2335
:1025100089F08C2F807F803421F080E2800F88301A
:1025200048F082E00E948F1B0E94F01A91E0D82EA2
:10253000D92601C0D12CCC2EC2948FE0C8228C2D7C
:1025400090E0FC01E659FF4F0C948C298C2F807F82
:10255000CF70882311F0C295C07FDD2399F0CC2382
:1025600009F4C4C180E2800F883010F0011104C06A
:102570008C2F0E94FA1A03C08C2F0E940A1B0E9403
:10258000451BB4C1802F0E94E711CC2309F4D3C1AD
:1025900080E2800F883010F0011104C08C2F0E945F
:1025A000001B03C08C2F0E94101B0E94451BC3C13F
:1025B0008C2F807FCF70803211F0C295C07F0023B6
:1025C00019F00130C9F022C0DD2371F0112341F070
:1025D000113031F40E942A1B8C2B0E94321BABC19C
:1025E0000E942A1B8C2B1DC0112319F0113009F4F5
:1025F000A2C10E943B1B25C0DD2321F0163008F04C
:102600009AC10EC0153008F096C11BC0DD2361F0E1
:10261000112331F0F701858180FF68C18F708583B8
:102620008C2F0E94621287C1112359F0093309F0DF
:102630006EC1FFEF27EE83E0F15020408040E1F7CC
:1026400064C18C2F0E94691276C18C2F8695869565
:10265000837019F0813061F06EC1DD2321F0802F8D
:102660009C2F937002C080E090E00E941A106BC112
:10267000DD2321F0802F9C2F937002C080E090E03A
:102680000E94301060C1DD23F9F0053F51F0063F94
:1026900071F0043FA9F48091A7029091A802816093
:1026A0000BC08091A7029091A802826005C0809122
:1026B000A7029091A80284609093A8028093A70239
:1026C000802F0E94181E1EC0053F51F0063F71F07A
:1026D000043FA9F48091A7029091A8028E7F0BC0BD
:1026E0008091A7029091A8028D7F05C08091A702DA
:1026F0009091A8028B7F9093A8028093A702802FCD
:102700000E94801E0E94051F1EC18C2F837009F03D
:1027100045C0D11114C1402F429546954770440FD2
:10272000440F602F6F70862F90E0A0E0B0E0042E81
:1027300004C0880F991FAA1FBB1F0A94D2F704FF79
:1027400010C00FE010E020E030E004C0000F111FC7
:10275000221F331F4A95D2F700951095209530958A
:1027600003C000E010E09801C695C695C370BC0197
:10277000CD01602B712B822B932BC23049F058F482
:10278000C13019F00E943319DAC00E942119D7C054
:102790000E944519D4C00E941F19D1C0DD2319F031
:1027A0008C2F817001C08695882309F4C8C0402F02
:1027B000429546954770440F440F602F6F70862FE7
:1027C00090E0A0E0B0E0042E04C0880F991FAA1F7B
:1027D000BB1F0A94D2F704FF10C00FE010E020E006
:1027E00030E004C0000F111F221F331F4A95D2F79B
:1027F000009510952095309503C000E010E09801F9
:10280000C695C695C370BC01CD01602B712B822B80
:10281000932BC23049F058F4C13019F00E94F819D6
:102820008EC00E94E6198BC00E940A1A88C00E94BE
:10283000591985C0CF70DD2339F08C2F0E947F1984
:10284000802F0E9462127BC0802F0E9469128C2F01
:102850000E94A01974C0023F01F128F4003F41F02A
:10286000013FA1F03FC0033FF9F0043F39F13AC006
:10287000DD2341F0153008F05EC08C2F8F710E946F
:10288000C51959C0163008F056C0F7CFDD2339F00E
:102890008C2F8F710E947F194EC0DD23C9F38C2FBE
:1028A0008F710E94A01947C0DD2329F08C2F8F71F2
:1028B0000E946A1940C00E9465193DC0DD2349F09D
:1028C000CF718C2F0E947F1963E08C2F0E947A1B9E
:1028D00032C081E00E948F1B123068F182E00E94BA
:1028E0008F1B29C0DD2331F0112391F2802F0E942C
:1028F000381121C0112399F2093349F49FEFE7EE13
:10290000F3E09150E040F040E1F700C00000802F7C
:102910000E94E71110C04C2F4F70602FC7010E941A
:1029200045040E9490180FC04C2F4F70602FC701B4
:102930000E94480408C088EF8C0D843020F40E9467
:10294000F50F0E94E303DD20C9F00E94EC1A80FD20
:1029500015C0F70112820E94E61A0E947F19C70172
:102960000E94DF140E94E61ADF91CF911F910F9110
:10297000FF90EF90DF90CF900C94A019DF91CF9152
:102980001F910F91FF90EF90DF90CF9008950F93DC
:102990001F93CF93DF93EC01688179818A810E9434
:1029A000C31A8C010E941C1A0E940D19B801CE0195
:1029B0000E947012DF91CF911F910F910895CF93D4
:1029C000DF93EC01988189812B813C81232B31F0AD
:1029D0008F3F31F481E09F3F19F403C081E001C0D3
:1029E00080E080FD19C0CE010E94FC0381110CC063
:1029F0000E94F01A882381F08A81882369F082E09E
:102A0000DF91CF910C948F1BCE010E94C714CE0191
:102A1000DF91CF910C94C503DF91CF9108950E946F
:102A2000171B0E94271B0E94451B0E942F200E94FB
:102A3000051F80E090E00E941A1080E090E00C9466
:102A4000301080910E0190910F010E94971C0C9400
:102A50000F150E94071B0C942115E92FE295EF70CA
:102A60004E2F50E0FA013297EE30F105B0F4E658FF
:102A7000FF4F0C948C29803F91F018F4883E68F445
:102A80000EC0843F51F40BC0883E48F0813F29F4CA
:102A900006C093FB882780F9089580E0089581E0BF
:102AA00008950E94B81A0E942D150895CF93DF93C0
:102AB00000D000D01F92CDB7DEB70F900F900F90CF
:102AC0000F900F90DF91CF910895CF93DF9300D0B7
:102AD00000D000D0CDB7DEB726960FB6F894DEBF93
:102AE0000FBECDBFDF91CF9108951F93CF93DF939A
:102AF000C091C90116E08091CA01C81799F0D0E0D1
:102B00001C9FF0011D9FF00D1124E553FE4F4081E5
:102B1000518162817381848195810E94651521961E
:102B2000C770E9CFDF91CF911F9108954091FB01CC
:102B30005091FC016091FD017091FE018091FF01B7
:102B4000909100020C9465150F931F93CF93DF9320
:102B50008091000282958F7009F05DC08091FD0127
:102B6000882309F458C08091C9011091CA0160916D
:102B7000FB017091FC01C091FE01D091FF0191E039
:102B80006F3F09F090E0292F06E0811709F443C058
:102B9000209721F07F3F21F030E003C031E001C0F9
:102BA000322F90E030FD34C0089FF001099FF00DF6
:102BB0001124DF01A553BE4F11963C911197371395
:102BC00027C03C91361324C012963C9112973111C4
:102BD0001FC013964D915C9114974C1B5D0B483CA4
:102BE0005105B0F4809100028F70806180930002E3
:102BF000E053FE4F80818F70806180838BEF91E086
:102C00000E94DF14DF91CF911F910F910C947515E5
:102C100001968770BACFDF91CF911F910F910895E0
:102C20009F92AF92BF92CF92DF92EF92FF920F935B
:102C30001F93CF93DF93CDB7DEB761970FB6F894AC
:102C4000DEBF0FBECDBF8C0185E0F801DE011D9611
:102C500001900D928A95E1F7F80140815181E2805F
:102C60009091FB016091FC012091FE013091FF01E8
:102C70002115310531F06F3F31F481E09F3F19F4A8
:102C800003C081E001C080E0F82FF1709F2E80FD2D
:102C900046C1F801A380B4808BEFC82E81E0D82E06
:102CA000F090FD01F501E21BF30BFF2009F4DFC0FA
:102CB00080910002E83CF10508F09BC0282F207F9E
:102CC00009F052C0561313C0491311C0FE2CE11075
:102CD0000EC08F708061809300020E949615C6011D
:102CE0000E94DF1480910002F801858358C1AB284F
:102CF00031F05F3F31F481E04F3F19F403C081E0D0
:102D000001C080E080FD03C081E08E2502C080E02C
:102D100090E0F82FF170FF2E80FF1CC08091C90158
:102D20002091CA0136E0821709F417C190E0389F5C
:102D3000F001399FF00D1124E553FE4F61815613C8
:102D400006C06081461303C06281E61203C001968B
:102D50008770E9CFFE2CEE2009F421C1809100029A
:102D60008160809300025AC0561306C0491304C004
:102D7000E11002C0F8019FC04D875E878D859E855A
:102D80000E945115882379F1EE2069F1209100020B
:102D9000822F82958F7090E0029774F08091FB01F2
:102DA0009091FC0198878F831986BB86AA862C8711
:102DB000CE0107960E94DF1486E0F801ABEFB1E088
:102DC00001900D928A95E1F70E94A4150E94961534
:102DD0000DC0561729F14D875E878D859E850E940F
:102DE000511581112CC0C8010E94DF14FF24F394F7
:102DF000D6C0282F207F69F77A2DB98AA88A6E2D30
:102E000089890E9456158BEF91E00E94DF1486E0BD
:102E1000F60111928A95E9F70E949615F12CBFC030
:102E20004913D9CFE110D7CFF8018583C8010E949B
:102E3000DF1486E0F60111928A95E9F7B0C0EE2022
:102E400091F220910002822F82958F7090E002977C
:102E50000CF4B2CF8091FB019091FC019A8389839D
:102E60001B82BD82AC822E83CE010196A3CFE83CAB
:102E7000F10508F047C0FE2CEE2009F4B4CF56133C
:102E800030C049132EC02091000220FD21C0822FA6
:102E900082958F70482F50E041155105C9F0F80117
:102EA00025834F30510541F08F5F982F9295907F89
:102EB000822F8F70892B8583C8010E94DF1486E0E2
:102EC000F801ABEFB1E001900D928A95E1F742C0B5
:102ED00086E0F801ABEFB1E001900D928A95E1F741
:102EE0005EC04D875E878D859E850E94511581113C
:102EF00063CF80910002816080930002C8010E942C
:102F0000DF144DC07A2DB98AA88A6E2D89890E9456
:102F1000561586E0F60111928A95E9F71BC0EE205E
:102F200009F461CF4D875E878D859E850E9451157E
:102F3000F82E882309F457CF86E0F801ABEFB1E013
:102F400001900D928A95E1F78BEF91E00E9432118A
:102F50000E94A4150E94961522C04D875E878D851C
:102F60009E850E94B81A292F22952F70223028F4AE
:102F70009F7039F0811105C00BC0243028F49F7078
:102F800049F4805E883020F0C8010E94DF149F2C35
:102F9000F92C05C0F8019581907F99F7F9CF8F2D15
:102FA00061960FB6F894DEBF0FBECDBFDF91CF9113
:102FB0001F910F91FF90EF90DF90CF90BF90AF9057
:102FC0009F9008951F93CF93DF93CDB7DEB72C97D3
:102FD0000FB6F894DEBF0FBECDBF4F835887698709
:102FE0007A878B879C87CE0107960E9410168823CC
:102FF000D1F09F8188852A853B85232B31F08F3F37
:1030000031F481E09F3F19F403C081E001C080E00A
:1030100080FD47C04F81588569857A858B859C8561
:103020000E9465153EC086E0FE013796DE011196CE
:1030300001900D928A95E1F7FF81E8856A857B858D
:103040006115710531F0EF3F31F481E0FF3F19F474
:1030500003C081E001C080E080FD23C02091CA014F
:1030600030E0C9010196877099274091C90150E06D
:1030700084179507F1F1F983EA837D836C8396E0E9
:10308000929FD001939FB00D1124A553BE4FFE0116
:10309000319601900D929A95E1F78093CA010E94B2
:1030A000751516E08091C9019091CA01891771F1D7
:1030B000189FC001112485539E4F0E94101688232B
:1030C00029F1E091C9011E9FF0011124E553FE4F43
:1030D0004081518162817381848195810E9465154F
:1030E0008091C90190E00196877099278093C9016A
:1030F000D9CF0E9429151092CA011092C901EBEF95
:10310000F1E086E0DF011D928A95E9F72C960FB673
:10311000F894DEBF0FBECDBFDF91CF911F91089510
:10312000EF92FF920F931F93CF93DF938C01892B24
:1031300009F46CC0F12CEE24E394E8012196F80127
:103140008491843740F4843008F051C0813081F09C
:10315000823019F15BC0853709F444C0A8F19CE7BF
:10316000980F903708F052C08F770E94E71141C046
:103170000E5F1F4FFE01849190E2980F983050F43B
:103180008770FE2D01C0FF0F8A95EAF78F2F0E94EE
:103190001A1B14C00E9438112DC00E5F1F4FFE0174
:1031A000849190E2980F983060F48770FE2D01C0F2
:1031B000FF0F8A95EAF78F2F0E94201B0E94451B64
:1031C00019C00E94E71116C00E5F1F4FFE01C49187
:1031D000CC2381F08FE99FE00197F1F700C0000058
:1031E000C150F6CF0E5F1F4FFE01F49003C00E9446
:1031F00038118E018F2D882309F49FCFEFE9FFE06E
:103200003197F1F700C000008150F5CFDF91CF91E9
:103210001F910F91FF90EF900895089508950C94D9
:103220000E190C940F190E94111960932D027093BE
:103230002E0280932F02909330020C940F150C9461
:1032400013190F931F9300912D0210912E022091BC
:103250002F0230913002602B712B822B932B1F9108
:103260000F910C9413190F931F9300912D0210913D
:103270002E0220912F02309130026023712382238D
:1032800093231F910F910C9413190F931F93009187
:103290002D0210912E0220912F02309130026027D2
:1032A0007127822793271F910F910C9413190C9467
:1032B0000E190E9457196093290270932A02809375
:1032C0002B0290932C020C940F1560E070E0CB0160
:1032D0000C9459190F931F9341E050E060E070E0A7
:1032E0008A019B0104C0000F111F221F331F8A9502
:1032F000D2F7C901B8011F910F910C9459190F937E
:103300001F9341E050E060E070E004C0440F551F9F
:10331000661F771F8A95D2F78091290290912A0221
:10332000A0912B02B0912C028A019B01082B192B32
:103330002A2B3B2BC901B8011F910F910C945919ED
:103340000F931F9341E050E060E070E004C0440F31
:10335000551F661F771F8A95D2F740955095609547
:1033600070958091290290912A02A0912B02B09130
:103370002C028A019B01082319232A233B23C9011C
:10338000B8011F910F910C9459190F931F9341E0AD
:1033900050E060E070E004C0440F551F661F771FC7
:1033A0008A95D2F78091290290912A02A0912B024E
:1033B000B0912C028A019B01082719272A273B2755
:1033C000C901B8011F910F910C9459190F931F93C4
:1033D0000091290210912A0220912B0230912C0297
:1033E000602B712B822B932B1F910F910C945919E9
:1033F0000F931F930091290210912A0220912B0212
:1034000030912C0260237123822393231F910F910B
:103410000C9459190F931F930091290210912A02BD
:1034200020912B0230912C0260277127822793274D
:103430001F910F910C9459190895292F220F920F63
:10344000990F890FE82FE695E695E695877051E08C
:1034500001C0550F8A95EAF785E0E89FF001112435
:10346000EF5FFD4F20E030E070E04081CB01022EA5
:1034700002C0969587950A94E2F78170819584271A
:103480008523842781932F5F3F4F2530310569F7CE
:103490000895292F220F920F990F890F682F669593
:1034A00066956695982F977085E0689FB001112406
:1034B00040E050E080E0FB01E40FF51FEF5FFD4FBF
:1034C000208130E0092E02C0369527950A94E2F754
:1034D00021703327042E01C0220F0A94EAF7822BB1
:1034E0004F5F5F4F4530510531F70895BF92CF923E
:1034F000DF92EF92FF920F931F93CF93DF938C0194
:10350000C0902902D0902A02E0902B02F0902C0269
:1035100080912D0290912E02A0912F02B091300245
:10352000C82AD92AEA2AFB2ACFE1D0E0D701C6016E
:103530000C2E04C0B695A795979587950A94D2F757
:1035400080FD04C0219790F7B12C07C0BC2EB801B4
:103550008C2F0E9464040197A9F38B2DDF91CF91EA
:103560001F910F91FF90EF90DF90CF90BF90089543
:10357000CF93DF93EC010E94761ABE010E9464048F
:10358000DF91CF9108951F93CF93DF93EB0190913B
:10359000C801992321F0CB010E94B81A13C08823D7
:1035A00049F0CB010E94761A182F682FCE010E9495
:1035B0001D1A04C0CB010E94491A182FBE01812F89
:1035C0000E946404DF91CF911F9108958091310290
:1035D0008595859585950895809131028770089528
:1035E00090913102977081E009F480E00895809114
:1035F0003D02089590913D02892B80933D020895EC
:10360000809590913D02892380933D020895109208
:103610003D02089590913C02892B80933C020895CD
:10362000809590913C02892380933C0208951092EA
:103630003C02089590913B02892B80933B020895B0
:10364000809590913B02892380933B0208951092CC
:103650003B02089580913202089508950C942D1B29
:103660000C942E1B90913202981721F08093320215
:103670000C94301B089580913202882329F0109217
:10368000320280E00C94301B0895E0910E01F0911D
:103690000F0180913D028083E0910E01F0910F01B6
:1036A000908180913C02892B8083E0910E01F09102
:1036B0000F01908180913B02892B8083809132029F
:1036C000882381F0E0910E01F0910F019081892B08
:1036D000808380910E0190910F010E94511C8111F5
:1036E0000E943B1B80910E0190910F010C940110E0
:1036F0000C942D1B98E0899F90011124262B209378
:1037000031020E947F1980913102859585958595BA
:103710000C94781B1092310280E00C94781B20915D
:1037200031028095822380933102982F977079F42B
:1037300030E0482F082E000C550B2417350739F0C0
:103740008595859585950E94A0190C948A1B0895EE
:1037500080E090E00E94BA2921E08C3E9E4F09F063
:1037600020E0822F089582E090E00C94AC2983E061
:1037700090E00C94AC29CF9384E090E00E94AC29B7
:10378000C82F81E290E00E94AC292C2F30E0A901E3
:10379000582BCA01CF910895CF93C92F682F84E089
:1037A00090E00E94C0296C2F81E290E0CF910C94B0
:1037B000C02986E090E00C94AC29682F86E090E068
:1037C0000C94C029AB01BC018FE090E00C94D2298D
:1037D000AB01BC0183E190E00C94D22960E070E081
:1037E000CB010C94E81B6CEE7EEF80E090E00E9431
:1037F000DE2960E082E090E00E94C02960E083E082
:1038000090E00E94C02910922D0210922E02109278
:103810002F021092300260E084E090E00E94C02904
:1038200060E081E290E00E94C02960E085E090E0E5
:103830000E94C02960E086E090E00E94C0296FEFFE
:1038400087E090E00E94C02940E050E0BA0188E0A3
:1038500090E00E94D22960E08DE090E00E94C029B3
:1038600040E050E0BA0188E190E00E94D22960E097
:1038700087E190E00E94C02940E050E0BA018CE16D
:1038800090E00E94D22960E080E290E00E94C0298E
:103890000C946D030C94F31B682F8EE090E00C9455
:1038A000C029FC01329697E080E0915029F02191E7
:1038B0002223D9F38F5FF9CF0895662349F0FC01E5
:1038C000329608962191621729F0E817F907D1F787
:1038D00080E0089581E008959C01FC0132969FEFFD
:1038E00080E04191461789F09F3F19F4411101C0D2
:1038F000982F8F5F8630A9F79F3F39F0F901E90FC4
:10390000F11D97FDFA956283089508959C012A5F41
:103910003F4FFC014281461301C01282019682177B
:103920009307B9F708950C946C1C0C94861C0296AE
:1039300026E0FC0111922A95E9F7089508950C9468
:103940009E1C0C949E1CCF930E94A11C0E94F90601
:103950000E949F1CC0E08C2F0E945306811104C05E
:10396000CF5FCA30C1F701C081E0CF9108950C94B8
:103970009E1C0C94B71C0E94B91C8091B302843029
:1039800061F110923F0220E488E190E00FB6F894D4
:10399000A895809360000FBE2093600080E00E9495
:1039A000FB0B80E00E94E3030E94B91C83B7817F78
:1039B000846083BF83B7816083BF7894889583B721
:1039C0008E7F83BF0FB6F894A895809160008861C0
:1039D00080936000109260000FBE08950C949E1CAE
:1039E0000E9429150E94EC0A0E94F50F0E94E30331
:1039F0000C94EE1C1F920F920FB60F9211248F930E
:103A00009F93AF93BF9380913F02811113C0809128
:103A1000A9029091AA02A091AB02B091AC0241968A
:103A2000A11DB11D8093A9029093AA02A093AB029D
:103A3000B093AC02BF91AF919F918F910F900FBE49
:103A40000F901F90189582E084BD93E095BD9AEF8A
:103A500097BD80936E0008952FB7F8948091A902C6
:103A60009091AA02A091AB02B091AC022FBF089531
:103A70009C014FB7F8948091A9029091AA02A0915D
:103A8000AB02B091AC024FBF821B930B08957894A8
:103A90001F920F920FB60F9211248F939F93AF93A3
:103AA000BF938091A9029091AA02A091AB02B0911C
:103AB000AC020196A11DB11D8093A9029093AA02A8
:103AC000A093AB02B093AC02BF91AF919F918F9145
:103AD0000F900FBE0F901F90189587E797E7909370
:103AE0000108809300089AE088E10FB6F894A89541
:103AF000809360000FBE90936000FFCF0E94A81BD0
:103B0000811102C00E944A1C0E94B31B80933E0296
:103B10000E94BB1B9093AE028093AD020E94B71B24
:103B2000682F70E080E090E00C941F1980914702AC
:103B300080FF0BC06091150185E0689FB0011124E2
:103B400075956795759567952BC081FF09C0609144
:103B5000150185E0689FB00111247595679520C017
:103B600082FF07C06091150185E0689FB0011124B4
:103B700017C0909146029923D1F0609114019617D5
:103B800088F72091150185E0289F90011124929FCC
:103B9000A001939F500D112470E0CA010E94562984
:103BA0006038710540F46115710519F406C065E0CF
:103BB00070E0862F08958FE7089581E00895809141
:103BC000470280FF08C06091110170E0759567950C
:103BD0007595679521C081FF06C06091110170E065
:103BE0007595679519C082FF04C06091110170E05E
:103BF00010C090914602992399F060911001961798
:103C0000A0F780911101899FC001112470E00E94EA
:103C100056296038710540F46115710519F406C024
:103C200061E070E0862F08958FE7089581E00895A0
:103C3000803F21F40E94961D819504C0813F29F4A4
:103C40000E94961D80934B020895823F21F40E94AA
:103C5000961D819504C0833F29F40E94961D809390
:103C60004A020895893F19F40E94DF1D05C08A3F6A
:103C700031F40E94DF1D819580934C0208958B3FA3
:103C800021F40E94DF1D819504C08C3F29F40E941D
:103C9000DF1D80934D020895843F21F480914902F5
:103CA000816017C0853F21F480914902826011C074
:103CB000863F21F48091490284600BC0873F21F444
:103CC00080914902886005C0883F31F480914902A3
:103CD00080618093490208958D3F21F480914702CD
:103CE00081600BC08E3F21F480914702826005C045
:103CF0008F3F29F4809147028460809347020895A2
:103D0000803F39F480914B0287FF6CC010924B02C8
:103D100069C0813F29F480914B021816BCF362C040
:103D200090914A02823F29F497FF5CC010924A02A8
:103D300059C0833F19F41916CCF354C0893F41F49C
:103D400080914C0218160CF04DC010924C024AC0E3
:103D50008A3F29F480914C0287FF44C0F6CF8B3F05
:103D600039F480914D0287FF3DC010924D023AC058
:103D70008C3F29F480914D021816BCF333C0843F68
:103D800021F4809149028E7F17C0853F21F48091F4
:103D900049028D7F11C0863F21F4809149028B7FBB
:103DA0000BC0873F21F480914902877F05C0883F7F
:103DB00031F4809149028F7E8093490213C08D3F78
:103DC00021F4809147028E7F0BC08E3F21F48091B9
:103DD00047028D7F05C08F3F29F4809147028B7F7A
:103DE0008093470280914A0281110EC080914B025C
:103DF00081110AC080914C02811106C080914D0250
:103E0000811102C010924602089588E492E00E9457
:103E10000C100E942C1D909345028093440208953B
:103E2000CF93DF9300D000D000D0CDB7DEB786E0CF
:103E3000E8E4F2E0DE01119601900D928A95E1F737
:103E400080914A02811105C080914B02882309F4B8
:103E50007AC080914202909143020E94381DAC01C9
:103E600090914602992339F02091160130E02417F1
:103E7000350758F068C0209117018AE0289F90010B
:103E800011242417350718F05EC09F3F19F09F5F7B
:103E90009093460210924C0210924D0280914A0279
:103EA000181624F40E94961D80934A0280914A02BB
:103EB00087FF05C00E94961D819580934A028091DC
:103EC0004B02181624F40E94961D80934B02809199
:103ED0004B0287FF05C00E94961D819580934B027F
:103EE00030914A023323E1F020914B022223C1F0AA
:103EF00045EB3403C0011124992319F090934A0231
:103F000003C081E080934A0235EB2303C0011124F2
:103F1000992319F090934B0203C081E080934B02E8
:103F20000E94051F809144029091450290934302A4
:103F30008093420286E0FE013196A8E4B2E001904F
:103F40000D928A95E1F780914C02811105C0809114
:103F50004D02882309F47AC0809140029091410279
:103F60000E94381DAC0190914602992339F02091AE
:103F7000120130E02417350758F068C02091130172
:103F80008AE0289F900111242417350718F05EC09D
:103F90009F3F19F09F5F9093460210924A02109241
:103FA0004B0280914C02181624F40E94DF1D80936E
:103FB0004C0280914C0287FF05C00E94DF1D819555
:103FC00080934C0280914D02181624F40E94DF1D4C
:103FD00080934D0280914D0287FF05C00E94DF1D36
:103FE000819580934D0230914C023323E1F0209172
:103FF0004D022223C1F045EB3403C0011124992363
:1040000019F090934C0203C081E080934C0235EB91
:104010002303C0011124992319F090934D0203C08A
:1040200081E080934D020E94051F8091440290918F
:104030004502909341028093400286E0FE01319652
:10404000A8E4B2E001900D928A95E1F726960FB6AA
:10405000F894DEBF0FBECDBFDF91CF910895E8E4A5
:10406000F2E086E0DF011D928A95E9F710924602A0
:10407000109247020895833081F128F4813059F07D
:104080008230D1F00895853009F449C0B8F1863006
:1040900009F456C0089580911701262F30E0280FAB
:1040A000311D2F3F310524F4680F609317010895E7
:1040B0008FEF80931701089580911601262F30E02D
:1040C000280F311D2F3F310524F4680F609316012E
:1040D00008958FEF80931601089580911501262F82
:1040E00030E0280F311D2F3F310524F4680F609315
:1040F000150108958FEF80931501089580911401A3
:10410000262F30E0280F311D2F3F310524F4680F92
:104110006093140108958FEF8093140108958091A6
:104120001101262F30E0280F311D2F3F310524F4D7
:10413000680F6093110108958FEF80931101089526
:1041400080911001262F30E0280F311D2F3F3105BF
:1041500024F4680F6093100108958FEF809310018D
:104160000895833011F128F4813049F0823091F0C4
:104170000895853081F120F18630C1F10895809154
:104180001701681720F4861B809317010895109279
:104190001701089580911601681720F4861B8093FB
:1041A000160108951092160108958091150168175F
:1041B00020F4861B8093150108951092150108952F
:1041C00080911401681720F4861B809314010895D0
:1041D00010921401089580911101681720F4861B34
:1041E000809311010895109211010895809110019A
:1041F000681720F4861B8093100108951092100117
:1042000008950F931F9341E050E060E070E08A0151
:104210009B0104C0000F111F221F331F8A95D2F784
:10422000C901B8010E941F191F910F910C94291503
:104230008B3109F468C058F58B3009F486C078F4E6
:10424000863009F445C020F4853009F44BC07FC0A6
:10425000873009F44AC0883009F477C078C08031CB
:1042600009F464C068F48E3009F071C080913E0298
:1042700082FB222720F991E0922790FB82F94CC023
:10428000863109F462C0893109F45FC060C08A32A6
:10429000E1F060F4873209F455C028F48E3108F457
:1042A00056C08D5150C08932E9F051C0833450F46A
:1042B0008A3308F045C0853309F444C0883309F4D3
:1042C00044C045C08334F1F142C00E944A1C3DC045
:1042D00080913E02817F8E7F80933E0281E08093B9
:1042E0004F0208950E94ED0330C080913E02982F46
:1042F0009095917090FB80F980933E02911125C0BA
:10430000897F877F10C080913E0281FB222720F9A0
:1043100091E0922790FB81F980933E029923A9F0C6
:1043200080913E02816080933E020FC080913E02E8
:1043300083FB222720F991E0922790FB83F9ECCFB1
:10434000895301C080E00E94012181E0089580E04E
:10435000089580E008950C94A9218E518A3030F49C
:10436000E82FF0E0E956FE4F8081089580E008953F
:10437000CF93C82F80914F02813051F018F08230D6
:1043800099F17DC00E94F71A823209F07AC004C008
:104390000E94F71A823261F48C2F0E94AB218111A6
:1043A00004C08C2F0E9418211DC081E090E01AC02B
:1043B0008C2F0E94A921811114C0C43179F048F4D6
:1043C000CB3079F0C03109F060C082E080934F02B9
:1043D00008C0C93219F0C83321F057C010924F02FB
:1043E00054C081E0817053C0C93289F118F5C431DD
:1043F00071F1B0F4C73009F046C08EE18093170127
:1044000082E3809316018AE08093150184E1809312
:10441000140188E08093110188E28093100133C079
:1044200082EE8C0F863078F58C2F0E94AD21809320
:104430004E0229C0CE34E9F020F4CB3421F56AE0F5
:1044400013C0C13579F0C235F1F461E00DC080913F
:104450004E02882319F010924E0215C081E080931D
:104460004F0215C061E006C080914E020E943B20C1
:104470000AC06AE080914E020E94B12004C01092EE
:104480004F0280E004C081E002C080E0ABCFCF915A
:104490000895809158020895CF93DF9300D01F9222
:1044A000CDB7DEB79091B302943019F589837B8341
:1044B0006A8382E08093E9008FEF9091E800815059
:1044C00095FD06C095ED9A95F1F700008111F5CFA5
:1044D0008091E80085FF0DC040E050E063E070E0AF
:1044E000CE0101960E9494248091E8008E778093FB
:1044F000E8000F900F900F90DF91CF910895CF9328
:10450000DF93EC010E947724823011F0843031F483
:10451000BE0184E0DF91CF910C944C22DF91CF91CA
:104520000895BC0183E00C944C22CF93DF93EC01FF
:104530000E947724823011F08430F9F482E0809375
:10454000E9008FEF9091E800815095FD06C095ED50
:104550009A95F1F700008111F5CF8091E80085FF71
:104560000CC040E050E066E070E0CE010E94942470
:104570008091E8008E778093E800DF91CF910895D5
:10458000CF93DF93EC010E947724823011F08430C6
:1045900039F581E08093E9008FEF9091E800815038
:1045A00095FD06C095ED9A95F1F700008111F5CFC4
:1045B0008091E80085FF14C040E050E068E070E0C2
:1045C000CE010E9494248091E8008E778093E800C9
:1045D00088E0FE01A0E5B2E001900D928A95E1F736
:1045E000DF91CF9108958091B202811109C00E949C
:1045F00025260E9482268091E20084608093E2005A
:1046000008951092B2020895089508950C94F01C34
:1046100042E061EC81E00E949E2542E261EC82E092
:104620000C949E258091B502833009F460C030F46B
:10463000813071F0823009F499C008958A3009F40C
:1046400085C08B3009F46BC0893009F0A7C020C049
:104650008091B402813A09F0A1C08091E800877F7F
:104660008093E8008091B8029091B902892B21F4DF
:1046700068E080E592E003C060E080E090E070E0F8
:104680000E94DF248091E8008B778093E8000895F2
:104690008091B402813209F081C08091B80290917A
:1046A000B902029708F07AC08091E800877F809372
:1046B000E8008091E80082FD05C08091B30281117D
:1046C000F8CF6CC02091F3008091F20090E0922B23
:1046D000029729F48091F1008B7F813021F4809141
:1046E000F100809358028091E8008B7753C080914D
:1046F000B402813A09F052C08091B8029091B90297
:10470000892B09F04BC08091E800877F8093E800F7
:104710008091E80080FFFCCF8091220136C080911B
:10472000B4028132D9F58091B8029091B902892BF7
:10473000A9F58091E800877F8093E8000E94D32547
:104740008091B602809322010C9429158091B402C5
:10475000813221F58091E800877F8093E8000E94F4
:10476000D3258091B7028093590208958091B402B5
:10477000813AA1F48091E800877F8093E8008091DE
:10478000E80080FFFCCF809159028093F100809176
:10479000E8008E778093E8000C94D325089584B7C1
:1047A000877F84BF0FB6F894A895809160008861D8
:1047B00080936000109260000FBE90E080E80FB61A
:1047C000F89480936100909361000FBE0E94561090
:1047D0000E9425260E9482268091E20084608093B8
:1047E000E20078940E9417290E945E1088E191E00F
:1047F0000E94F00F8091B302853069F40E94BB1CC7
:104800008091B1028823B1F30E94A31C882391F305
:104810000E947E24EFCF0E946A10ECCF0C941024EB
:10482000292F332723303105C9F060F421303105B9
:1048300081F02230310509F04AC08BE390E02AE391
:1048400035E049C02132310511F12232310579F1CB
:104850003EC082E190E025E735E03DC099278130F8
:10486000910561F040F08230910559F0039779F598
:10487000E4EFF4E008C0E6E3F5E005C0E6E2F5E0C9
:1048800002C0EAEFF4E0849190E09F0124C061153A
:10489000710541F061307105D1F489E090E025E6C1
:1048A00035E019C089E090E02CE435E014C06115D2
:1048B000710541F06130710551F481E890E027E81D
:1048C00035E009C080E490E028E036E004C080E0F4
:1048D00090E020E030E0FA01318320830895809158
:1048E000B302843011F081E0089582E00895809150
:1048F0005A02811102C00C946F24089580E189BD91
:1049000082E189BD09B400FEFDCF8091D8008F7D82
:104910008093D8008091E00082608093E0008091D5
:10492000E00081FDFCCF0895CF92DF92EF92FF92DD
:104930000F931F93CF93DF93EC018B017A010E94B9
:10494000F225811133C0E114F10439F0F7018081BF
:104950009181081B190BC80FD91FC12CD12C01152F
:10496000110519F18091E80085FD16C08091E800DD
:104970008E778093E800E114F10449F0F70180811B
:104980009181C80ED91ED182C08285E00FC00E94DD
:10499000F225882321F30AC089918093F100015008
:1049A0001109FFEFCF1ADF0ADACF80E0DF91CF9154
:1049B0001F910F91FF90EF90DF90CF90089520917D
:1049C000BA023091BB022617370748F0611571050E
:1049D00039F42091E8002E772093E80001C0B90156
:1049E000FC0120E06115710579F18091B302882303
:1049F000F1F18530F1F18091E80083FD3CC08091B8
:104A0000E80082FD2EC08091E80080FFEBCF20916E
:104A1000F3008091F20090E0922B6115710551F046
:104A20008830910538F421912093F100615071098B
:104A30000196F3CF21E0089709F020E08091E8008B
:104A40008E778093E800CECF2111CFCF0AC080911E
:104A5000B302882361F0853061F08091E80083FD26
:104A60000AC08091E80082FFF2CF80E0089582E0E2
:104A7000089583E0089581E008952091BA0230916D
:104A8000BB022617370748F06115710539F42091EC
:104A9000E8002E772093E80001C0B901FC0120E076
:104AA0006115710591F18091B302882309F440C02A
:104AB000853009F43FC08091E80083FD3DC08091BE
:104AC000E80082FD2FC08091E80080FFE9CF2091AF
:104AD000F3008091F20090E0922B6115710559F07E
:104AE0008830910540F424912093F1003196615073
:104AF00071090196F2CF21E0089709F020E080913A
:104B0000E8008E778093E800CBCF2111CCCF0AC08C
:104B10008091B302882361F0853061F08091E800D4
:104B200083FD0AC08091E80082FFF2CF80E0089503
:104B300082E0089583E0089581E00895982F9730EA
:104B400068F59093E900981739F07091EC00209186
:104B5000ED005091F00003C0242F762F50E021FD8E
:104B600002C09F5FECCF3091EB003E7F3093EB00B3
:104B70003091ED003D7F3093ED003091EB003160DE
:104B80003093EB007093EC002093ED005093F00015
:104B90002091EE0027FDE5CF80E008958F7080938F
:104BA000E90081E008958091B40287FF11C08091EF
:104BB000E80082FD05C08091B3028111F8CF11C0D9
:104BC0008091E8008B770BC08091B302882349F075
:104BD0008091E80080FFF8CF8091E8008E77809385
:104BE000E80008952091E4003091E50095E64091B9
:104BF000EC00842F817040FF23C08091E80080FD8D
:104C00001DC08091B302882399F0853099F080917E
:104C1000EB0085FD11C04091E4005091E5002417A0
:104C2000350729F3915011F09A01E1CF84E00895FE
:104C300082E0089583E0089581E0089580E008957A
:104C40004091E80042FFDDCF08950E9493260E9424
:104C50009B26E0EEF0E0808181608083E8EDF0E06B
:104C600080818F77808319BCA7EDB0E08C918E7F17
:104C70008C9380818F7E80831092B20208950F936F
:104C80001F93CF93DF930E9493260E949B26C8ED2B
:104C9000D0E088818F778883888180688883888145
:104CA0008F7D888319BC1092B3021092AF021092CC
:104CB000B1021092B00200EE10E0F80180818B7F0B
:104CC000808388818160888342E060E080E00E9488
:104CD0009E25E1EEF0E080818E7F8083E2EEF0E0C1
:104CE000808181608083808188608083F8018081F9
:104CF0008E7F8083888180618883DF91CF911F912F
:104D00000F910895E8EDF0E080818F7E8083E7EDDC
:104D1000F0E080818160808384E082BF81E08093C5
:104D2000B2020C943F26E8EDF0E080818E7F808314
:104D30001092E20008951092DA001092E1000895B6
:104D40001F920F920FB60F9211242F933F934F9300
:104D50005F936F937F938F939F93AF93BF93EF93E3
:104D6000FF938091E10082FF0BC08091E20082FFFF
:104D700007C08091E1008B7F8093E1000E9416299B
:104D80008091DA0080FF1FC08091D80080FF1BC097
:104D90008091DA008E7F8093DA008091D90080FFC5
:104DA0000DC080E189BD82E189BD09B400FEFDCF5F
:104DB00081E08093B3020E94F32205C019BC1092D7
:104DC000B3020E9401238091E10080FF19C080910D
:104DD000E20080FF15C08091E2008E7F8093E200A8
:104DE0008091E20080618093E2008091D80080622F
:104DF0008093D80019BC85E08093B3020E940523FC
:104E00008091E10084FF30C08091E20084FF2CC0DB
:104E100080E189BD82E189BD09B400FEFDCF8091AA
:104E2000D8008F7D8093D8008091E1008F7E8093A1
:104E3000E1008091E2008F7E8093E2008091E200A9
:104E400081608093E2008091AF02882311F084E0BA
:104E500007C08091E30087FD02C081E001C083E0CC
:104E60008093B3020E9406238091E10083FF29C052
:104E70008091E20083FF25C08091E100877F8093CD
:104E8000E10082E08093B3021092AF028091E100D2
:104E90008E7F8093E1008091E2008E7F8093E2001C
:104EA0008091E20080618093E20042E060E080E077
:104EB0000E949E258091F00088608093F0000E94FF
:104EC0000423FF91EF91BF91AF919F918F917F91BB
:104ED0006F915F914F913F912F910F900FBE0F9067
:104EE0001F9018951F920F920FB60F9211242F93B7
:104EF0003F934F935F936F937F938F939F93AF9362
:104F0000BF93CF93DF93EF93FF93C091E900CF70EE
:104F10008091EC00D82FD17080FDD0E81092E9008C
:104F20008091F000877F8093F00078940E94B627EC
:104F30001092E9008091F00088608093F000CD2B02
:104F4000CF70C093E900FF91EF91DF91CF91BF91B6
:104F5000AF919F918F917F916F915F914F913F9111
:104F60002F910F900FBE0F901F9018951F93CF9306
:104F7000DF93CDB7DEB7AA970FB6F894DEBF0FBEAA
:104F8000CDBFE4EBF2E08091F100819322E0EC3BB5
:104F9000F207C9F70E9412238091E80083FF2EC117
:104FA0008091B4029091B502492F50E04A305105EA
:104FB00008F024C1FA01E857FF4F0C948C2980387F
:104FC00021F0823809F01AC108C08091B002909196
:104FD000B102992389F082600FC08091B8028F706E
:104FE000873008F00BC18093E9008091EB0085FBCE
:104FF000882780F91092E9009091E800977F9093BC
:10500000E8008093F1001092F100D1C0282F2D7F8D
:1050100009F0F4C0882319F0823061F0EFC080916C
:10502000B602813009F0EAC0933009F080E0809345
:10503000B1022EC08091B60281112AC08091B802BF
:105040008F702FEF280F263008F0D8C08093E9002A
:105050002091EB0020FF1CC0933021F48091EB00E5
:10506000806214C09091EB0090619093EB0021E07E
:1050700030E0A90102C0440F551F8A95E2F7409322
:10508000EA001092EA008091EB0088608093EB00C8
:105090001092E9008091E800877F8093E8000E94E9
:1050A000D325ACC08111AAC01091B6021F778091A0
:1050B000E3008078812B8093E3008091E800877F74
:1050C0008093E8000E94D3258091E80080FFFCCF08
:1050D0008091E30080688093E300111102C082E0B8
:1050E00001C083E08093B30289C08058823008F009
:1050F00085C08091B6029091B7028C3D53E0950730
:1051000079F583E08A838AE289834FB7F894DE01D8
:10511000139620E03EE051E2E32FF0E05093570079
:10512000E49120FF03C0E295EF703F5FEF708E2F98
:1051300090E0EA3010F0C79601C0C0968D939D9321
:105140002F5F243149F74FBF8091E800877F80931C
:10515000E8006AE270E0CE0101960E94DF2416C0EA
:105160006091B8027091B902AE014F5F5F4F0E942B
:105170000E24BC01892B09F441C09091E800977F6F
:105180009093E80089819A810E943D258091E800F2
:105190008B778093E80032C0803881F58091E800F9
:1051A000877F8093E8008091AF028093F100809127
:1051B000E8008E7772CF811121C08091B602909164
:1051C000B70299270297D4F48091E800877F8093F3
:1051D000E8008091B6028093AF020E94D3258091AF
:1051E000AF02811106C08091E30087FD02C081E01B
:1051F00001C084E08093B3020E9408238091E800FC
:1052000083FF0AC08091E800877F8093E800809147
:10521000EB0080628093EB00AA960FB6F894DEBF95
:105220000FBECDBFDF91CF911F9108950895CF9309
:105230008091B3028823A1F0C091E900CF709091D2
:10524000EC00892F817090FD80E8C82B1092E90056
:105250008091E80083FD0E94B627CF70C093E900DB
:10526000CF910895DB018F939F930E94A129BF9155
:10527000AF91A29F800D911DA39F900DB29F900DA5
:1052800011240895AA1BBB1B51E107C0AA1FBB1F15
:10529000A617B70710F0A61BB70B881F991F5A95C2
:1052A000A9F780959095BC01CD01089597FB072E35
:1052B00016F4009407D077FD09D00E94422907FC1C
:1052C00005D03EF4909581959F4F08957095619516
:1052D0007F4F0895A1E21A2EAA1BBB1BFD010DC032
:1052E000AA1FBB1FEE1FFF1FA217B307E407F50796
:1052F00020F0A21BB30BE40BF50B661F771F881F72
:10530000991F1A9469F760957095809590959B0107
:10531000AC01BD01CF010895EE0FFF1F0590F49180
:10532000E02D0994A29FB001B39FC001A39F700D0F
:10533000811D1124911DB29F700D811D1124911D9D
:1053400008950E949229A59F900DB49F900DA49F4F
:10535000800D911D11240895F999FECF92BD81BD54
:10536000F89A992780B50895A6E1B0E044E050E0AE
:105370000C94E629A8E1B0E042E050E00C94E62964
:10538000262FF999FECF92BD81BDF89A019700B4FE
:10539000021639F01FBA20BD0FB6F894FA9AF99A9E
:1053A0000FBE08950396272F0E94C1290E94C0298D
:1053B000252F0E94C129242F0C94C1290196272F43
:1053C0000E94C1290C94C029DC01CB01FC01F99990
:1053D000FECF06C0F2BDE1BDF89A319600B40D9241
:0C53E00041505040B8F70895F894FFCFFA
:1053EC0001A70101A80105A901001000101033024A
:1053FC002808641E140A321E4922C02295229122CA
:10540C007F2201E200E900EA00B500B600B700CD4A
:10541C00008301CC008A0192019401210223022411
:10542C00022502260227022A02B300B4006F007084
:10543C000081828392F5F6F731339497C6343500A8
:10544C00000000000001E200E900EA00B500B6002F
:10545C00B700CD008301CC008A0192019401210296
:10546C00230224022502260227022A02B300B400DA
:10547C006F0070008182830102030405060708098E
:02548C0000001E
:00000001FF
